:1000000099EF00F0200E136E93908A8093928A826B
:1000100093948A8493968A96938E81BE02D0310EF1
:10002000136E938C81BC02D0340E136E938A81BA06
:1000300002D0370E136E938881B802D02A0E136E49
:1000400093968A8693948A94938E81BE02D0320EC0
:10005000136E938C81BC02D0350E136E938A81BAD5
:1000600002D0380E136E938881B802D0300E136E12
:1000700093948A8493928A92938E81BE02D0330E97
:10008000136E938C81BC02D0360E136E938A81BAA4
:1000900002D0390E136E938881B802D0230E136EEE
:1000A00093928A8293908A90938E81BE02D0410E61
:1000B000136E938C81BC02D0420E136E938A81BA68
:1000C00002D0430E136E938881B802D0440E136E93
:1000D00093908A8013C001F01200EA6A130EE96E51
:1000E000EF500DE0060E016E006A002EFED7012EC5
:1000F000FBD77B0E006E002EFED7EF2EF3D712003B
:1001000081DF01C012F01250200810E005B00ED0BF
:1001100005800450125C0AE00A0E136EDEDF72DF07
:100120001250015C03E112C001F001D00590BEEF56
:1001300000F0F86AD09EB886080EAF6E020EB06E60
:10014000A60EAC6E900EAB6E106A116AC150C00B59
:100150000F09C16E070EB46E066A076A370E0A6E83
:10016000300E0B6E0C6E330E0D6E300E0E6E0F6A6F
:10017000096A0A0E086EF19E0590C2D701C004F00C
:1001800005A014D004509EA8FED7AD6E036A10508F
:100190000824E96E09500320EA6E0450EF5C05E084
:1001A0001050040802E3010E116E102A115203E1EF
:1001B0001050060810E2045023080DE195948C8439
:1001C000140E126EFA0E136E88DF122EFBD7959462
:1001D0008C94106A116A1050060812E1115210E155
:1001E000045023080DE195928C82140E126EFA0EC3
:1001F000136E73DF122EFBD795928C92106A116AE0
:04020000BCD7030064
:020000040030CA
:0E00000024CC3E1E0087A1000FC00FE00F4071
:00000001FF
;PIC18F4550
;CRC=052B  CREATED="09-ago-24 11:08"
